{
  "_format": "hh-sol-artifact-1",
  "contractName": "sXTtoken",
  "sourceName": "contracts/sXTtoken.sol",
  "abi": [
    {
      "inputs": [
        {
          "internalType": "uint256",
          "name": "_initialSupply",
          "type": "uint256"
        }
      ],
      "stateMutability": "nonpayable",
      "type": "constructor"
    },
    {
      "anonymous": false,
      "inputs": [
        {
          "indexed": true,
          "internalType": "address",
          "name": "owner",
          "type": "address"
        },
        {
          "indexed": true,
          "internalType": "address",
          "name": "spender",
          "type": "address"
        },
        {
          "indexed": false,
          "internalType": "uint256",
          "name": "value",
          "type": "uint256"
        }
      ],
      "name": "Approval",
      "type": "event"
    },
    {
      "anonymous": false,
      "inputs": [
        {
          "indexed": true,
          "internalType": "address",
          "name": "previousOwner",
          "type": "address"
        },
        {
          "indexed": true,
          "internalType": "address",
          "name": "newOwner",
          "type": "address"
        }
      ],
      "name": "OwnershipTransferred",
      "type": "event"
    },
    {
      "anonymous": false,
      "inputs": [
        {
          "indexed": true,
          "internalType": "address",
          "name": "from",
          "type": "address"
        },
        {
          "indexed": true,
          "internalType": "address",
          "name": "to",
          "type": "address"
        },
        {
          "indexed": false,
          "internalType": "uint256",
          "name": "value",
          "type": "uint256"
        }
      ],
      "name": "Transfer",
      "type": "event"
    },
    {
      "inputs": [
        {
          "internalType": "address",
          "name": "owner",
          "type": "address"
        },
        {
          "internalType": "address",
          "name": "spender",
          "type": "address"
        }
      ],
      "name": "allowance",
      "outputs": [
        {
          "internalType": "uint256",
          "name": "",
          "type": "uint256"
        }
      ],
      "stateMutability": "view",
      "type": "function"
    },
    {
      "inputs": [
        {
          "internalType": "address",
          "name": "spender",
          "type": "address"
        },
        {
          "internalType": "uint256",
          "name": "amount",
          "type": "uint256"
        }
      ],
      "name": "approve",
      "outputs": [
        {
          "internalType": "bool",
          "name": "",
          "type": "bool"
        }
      ],
      "stateMutability": "nonpayable",
      "type": "function"
    },
    {
      "inputs": [
        {
          "internalType": "address",
          "name": "account",
          "type": "address"
        }
      ],
      "name": "balanceOf",
      "outputs": [
        {
          "internalType": "uint256",
          "name": "",
          "type": "uint256"
        }
      ],
      "stateMutability": "view",
      "type": "function"
    },
    {
      "inputs": [],
      "name": "decimals",
      "outputs": [
        {
          "internalType": "uint8",
          "name": "",
          "type": "uint8"
        }
      ],
      "stateMutability": "view",
      "type": "function"
    },
    {
      "inputs": [
        {
          "internalType": "address",
          "name": "spender",
          "type": "address"
        },
        {
          "internalType": "uint256",
          "name": "subtractedValue",
          "type": "uint256"
        }
      ],
      "name": "decreaseAllowance",
      "outputs": [
        {
          "internalType": "bool",
          "name": "",
          "type": "bool"
        }
      ],
      "stateMutability": "nonpayable",
      "type": "function"
    },
    {
      "inputs": [],
      "name": "getTestUSDTAddress",
      "outputs": [
        {
          "internalType": "address",
          "name": "",
          "type": "address"
        }
      ],
      "stateMutability": "view",
      "type": "function"
    },
    {
      "inputs": [
        {
          "internalType": "address",
          "name": "spender",
          "type": "address"
        },
        {
          "internalType": "uint256",
          "name": "addedValue",
          "type": "uint256"
        }
      ],
      "name": "increaseAllowance",
      "outputs": [
        {
          "internalType": "bool",
          "name": "",
          "type": "bool"
        }
      ],
      "stateMutability": "nonpayable",
      "type": "function"
    },
    {
      "inputs": [
        {
          "internalType": "address",
          "name": "_address",
          "type": "address"
        },
        {
          "internalType": "uint256",
          "name": "_amount",
          "type": "uint256"
        }
      ],
      "name": "mint",
      "outputs": [],
      "stateMutability": "nonpayable",
      "type": "function"
    },
    {
      "inputs": [],
      "name": "name",
      "outputs": [
        {
          "internalType": "string",
          "name": "",
          "type": "string"
        }
      ],
      "stateMutability": "view",
      "type": "function"
    },
    {
      "inputs": [],
      "name": "owner",
      "outputs": [
        {
          "internalType": "address",
          "name": "",
          "type": "address"
        }
      ],
      "stateMutability": "view",
      "type": "function"
    },
    {
      "inputs": [],
      "name": "renounceOwnership",
      "outputs": [],
      "stateMutability": "nonpayable",
      "type": "function"
    },
    {
      "inputs": [
        {
          "internalType": "address",
          "name": "_usdtAddress",
          "type": "address"
        }
      ],
      "name": "setTestUSDTAddress",
      "outputs": [],
      "stateMutability": "nonpayable",
      "type": "function"
    },
    {
      "inputs": [
        {
          "internalType": "uint256",
          "name": "_sxtAmount",
          "type": "uint256"
        }
      ],
      "name": "swapFromSXT",
      "outputs": [],
      "stateMutability": "nonpayable",
      "type": "function"
    },
    {
      "inputs": [
        {
          "internalType": "uint256",
          "name": "_usdtAmount",
          "type": "uint256"
        }
      ],
      "name": "swapFromUSDT",
      "outputs": [],
      "stateMutability": "nonpayable",
      "type": "function"
    },
    {
      "inputs": [],
      "name": "symbol",
      "outputs": [
        {
          "internalType": "string",
          "name": "",
          "type": "string"
        }
      ],
      "stateMutability": "view",
      "type": "function"
    },
    {
      "inputs": [],
      "name": "totalSupply",
      "outputs": [
        {
          "internalType": "uint256",
          "name": "",
          "type": "uint256"
        }
      ],
      "stateMutability": "view",
      "type": "function"
    },
    {
      "inputs": [
        {
          "internalType": "address",
          "name": "to",
          "type": "address"
        },
        {
          "internalType": "uint256",
          "name": "amount",
          "type": "uint256"
        }
      ],
      "name": "transfer",
      "outputs": [
        {
          "internalType": "bool",
          "name": "",
          "type": "bool"
        }
      ],
      "stateMutability": "nonpayable",
      "type": "function"
    },
    {
      "inputs": [
        {
          "internalType": "address",
          "name": "from",
          "type": "address"
        },
        {
          "internalType": "address",
          "name": "to",
          "type": "address"
        },
        {
          "internalType": "uint256",
          "name": "amount",
          "type": "uint256"
        }
      ],
      "name": "transferFrom",
      "outputs": [
        {
          "internalType": "bool",
          "name": "",
          "type": "bool"
        }
      ],
      "stateMutability": "nonpayable",
      "type": "function"
    },
    {
      "inputs": [
        {
          "internalType": "address",
          "name": "newOwner",
          "type": "address"
        }
      ],
      "name": "transferOwnership",
      "outputs": [],
      "stateMutability": "nonpayable",
      "type": "function"
    }
  ],
  "bytecode": "0x6080604052600680546001600160a01b03191673dac17f958d2ee523a2206206994597c13d831ec7178155601260078190556008556009553480156200004457600080fd5b5060405162001a0038038062001a008339810160408190526200006791620002f8565b6040518060400160405280600881526020016739ac2a3a37b5b2b760c11b815250604051806040016040528060038152602001621cd61560ea1b8152508160039080519060200190620000bc9291906200023f565b508051620000d29060049060208401906200023f565b505050620000ef620000e96200010260201b60201c565b62000106565b620000fb308262000158565b5062000454565b3390565b600580546001600160a01b038381166001600160a01b0319831681179093556040519116919082907f8be0079c531659141344cd1fd0a4f28419497f9722a3daafe3b4186f6b6457e090600090a35050565b6001600160a01b0382166200018a5760405162461bcd60e51b8152600401620001819062000355565b60405180910390fd5b62000198600083836200023a565b8060026000828254620001ac919062000380565b90915550506001600160a01b03821660009081526020819052604081208054839290620001db90849062000380565b90915550506040516001600160a01b038316906000907fddf252ad1be2c89b69c2b068fc378daa952ba7f163c4a11628f55a4df523b3ef906200022090859062000367565b60405180910390a362000236600083836200023a565b5050565b505050565b8280546200024d90620003b8565b90600052602060002090601f016020900481019282620002715760008555620002bc565b82601f106200028c57805160ff1916838001178555620002bc565b82800160010185558215620002bc579182015b82811115620002bc5782518255916020019190600101906200029f565b50620002ca929150620002ce565b5090565b5b80821115620002ca5760008155600101620002cf565b8051620002f2816200043a565b92915050565b6000602082840312156200030b57600080fd5b6000620003198484620002e5565b949350505050565b600062000330601f8362000377565b91506200033d8262000415565b5060200190565b6200034f81620003b5565b82525050565b60208082528101620002f28162000321565b60208101620002f2828462000344565b90815260200190565b60006200038d82620003b5565b91506200039a83620003b5565b92508219821115620003b057620003b0620003e9565b500190565b90565b600281046001821680620003cd57607f821691505b60208210811415620003e357620003e3620003ff565b50919050565b634e487b7160e01b600052601160045260246000fd5b634e487b7160e01b600052602260045260246000fd5b7f45524332303a206d696e7420746f20746865207a65726f2061646472657373009052565b6200044581620003b5565b81146200045157600080fd5b50565b61159c80620004646000396000f3fe608060405234801561001057600080fd5b50600436106101215760003560e01c80638551cd82116100ad578063a9059cbb11610071578063a9059cbb1461022f578063dd62ed3e14610242578063e13922f814610255578063eb07256614610268578063f2fde38b1461027b57610121565b80638551cd82146101e45780638da5cb5b146101f757806395d89b411461020c57806398166bb214610214578063a457c2d71461021c57610121565b8063313ce567116100f4578063313ce5671461018c57806339509351146101a157806340c10f19146101b457806370a08231146101c9578063715018a6146101dc57610121565b806306fdde0314610126578063095ea7b31461014457806318160ddd1461016457806323b872dd14610179575b600080fd5b61012e61028e565b60405161013b9190610f23565b60405180910390f35b610157610152366004610ca3565b610320565b60405161013b9190610f15565b61016c610344565b60405161013b9190610ff4565b610157610187366004610c56565b61034a565b61019461037a565b60405161013b9190611002565b6101576101af366004610ca3565b61037f565b6101c76101c2366004610ca3565b6103ab565b005b61016c6101d7366004610bf6565b610401565b6101c761041c565b6101c76101f2366004610bf6565b610467565b6101ff6104c8565b60405161013b9190610ec4565b61012e6104d7565b6101ff6104e6565b61015761022a366004610ca3565b6104f5565b61015761023d366004610ca3565b610548565b61016c610250366004610c1c565b610560565b6101c7610263366004610cf1565b61058b565b6101c7610276366004610cf1565b610704565b6101c7610289366004610bf6565b610819565b60606003805461029d90611228565b80601f01602080910402602001604051908101604052809291908181526020018280546102c990611228565b80156103165780601f106102eb57610100808354040283529160200191610316565b820191906000526020600020905b8154815290600101906020018083116102f957829003601f168201915b5050505050905090565b60008061032b61088a565b905061033881858561088e565b60019150505b92915050565b60025490565b60008061035561088a565b9050610362858285610942565b61036d85858561098c565b60019150505b9392505050565b601290565b60008061038a61088a565b905061033881858561039c8589610560565b6103a6919061101d565b61088e565b6103b361088a565b6001600160a01b03166103c46104c8565b6001600160a01b0316146103f35760405162461bcd60e51b81526004016103ea90610fa4565b60405180910390fd5b6103fd8282610ab0565b5050565b6001600160a01b031660009081526020819052604090205490565b61042461088a565b6001600160a01b03166104356104c8565b6001600160a01b03161461045b5760405162461bcd60e51b81526004016103ea90610fa4565b6104656000610b78565b565b61046f61088a565b6001600160a01b03166104806104c8565b6001600160a01b0316146104a65760405162461bcd60e51b81526004016103ea90610fa4565b600680546001600160a01b0319166001600160a01b0392909216919091179055565b6005546001600160a01b031690565b60606004805461029d90611228565b6006546001600160a01b031690565b60008061050061088a565b9050600061050e8286610560565b9050838110156105305760405162461bcd60e51b81526004016103ea90610fd4565b61053d828686840361088e565b506001949350505050565b60008061055361088a565b905061033881858561098c565b6001600160a01b03918216600090815260016020908152604080832093909416825291909152205490565b60006103e8600854600a61059f91906110bc565b6009546105ad90600a6110bc565b6105b790856111a2565b6105c1919061104b565b6105cb919061104b565b6006546040516370a0823160e01b815291925082916001600160a01b03909116906370a0823190610600903090600401610ec4565b60206040518083038186803b15801561061857600080fd5b505afa15801561062c573d6000803e3d6000fd5b505050506040513d601f19601f820116820180604052508101906106509190610d0f565b101561066e5760405162461bcd60e51b81526004016103ea90610f64565b61067a3360008461034a565b5060065460405163a9059cbb60e01b81526001600160a01b039091169063a9059cbb906106ad9033908590600401610efa565b602060405180830381600087803b1580156106c757600080fd5b505af11580156106db573d6000803e3d6000fd5b505050506040513d601f19601f820116820180604052508101906106ff9190610cd3565b505050565b6000600954600a61071591906110bc565b60085461072390600a6110bc565b61072f846103e86111a2565b61073991906111a2565b610743919061104b565b90508061074f30610401565b101561076d5760405162461bcd60e51b81526004016103ea90610f94565b6006546040516323b872dd60e01b81526001600160a01b03909116906323b872dd906107a190339030908790600401610ed2565b602060405180830381600087803b1580156107bb57600080fd5b505af11580156107cf573d6000803e3d6000fd5b505050506040513d601f19601f820116820180604052508101906107f39190610cd3565b5060405163a9059cbb60e01b8152309063a9059cbb906106ad9033908590600401610efa565b61082161088a565b6001600160a01b03166108326104c8565b6001600160a01b0316146108585760405162461bcd60e51b81526004016103ea90610fa4565b6001600160a01b03811661087e5760405162461bcd60e51b81526004016103ea90610f44565b61088781610b78565b50565b3390565b6001600160a01b0383166108b45760405162461bcd60e51b81526004016103ea90610fc4565b6001600160a01b0382166108da5760405162461bcd60e51b81526004016103ea90610f54565b6001600160a01b0380841660008181526001602090815260408083209487168084529490915290819020849055517f8c5be1e5ebec7d5bd14f71427d1e84f3dd0314c0f7b2291e5b200ac8c7c3b92590610935908590610ff4565b60405180910390a3505050565b600061094e8484610560565b9050600019811461098657818110156109795760405162461bcd60e51b81526004016103ea90610f74565b610986848484840361088e565b50505050565b6001600160a01b0383166109b25760405162461bcd60e51b81526004016103ea90610fb4565b6001600160a01b0382166109d85760405162461bcd60e51b81526004016103ea90610f34565b6109e38383836106ff565b6001600160a01b03831660009081526020819052604090205481811015610a1c5760405162461bcd60e51b81526004016103ea90610f84565b6001600160a01b03808516600090815260208190526040808220858503905591851681529081208054849290610a5390849061101d565b92505081905550826001600160a01b0316846001600160a01b03167fddf252ad1be2c89b69c2b068fc378daa952ba7f163c4a11628f55a4df523b3ef84604051610a9d9190610ff4565b60405180910390a36109868484846106ff565b6001600160a01b038216610ad65760405162461bcd60e51b81526004016103ea90610fe4565b610ae2600083836106ff565b8060026000828254610af4919061101d565b90915550506001600160a01b03821660009081526020819052604081208054839290610b2190849061101d565b90915550506040516001600160a01b038316906000907fddf252ad1be2c89b69c2b068fc378daa952ba7f163c4a11628f55a4df523b3ef90610b64908590610ff4565b60405180910390a36103fd600083836106ff565b600580546001600160a01b038381166001600160a01b0319831681179093556040519116919082907f8be0079c531659141344cd1fd0a4f28419497f9722a3daafe3b4186f6b6457e090600090a35050565b803561033e81611540565b805161033e81611554565b803561033e8161155d565b805161033e8161155d565b600060208284031215610c0857600080fd5b6000610c148484610bca565b949350505050565b60008060408385031215610c2f57600080fd5b6000610c3b8585610bca565b9250506020610c4c85828601610bca565b9150509250929050565b600080600060608486031215610c6b57600080fd5b6000610c778686610bca565b9350506020610c8886828701610bca565b9250506040610c9986828701610be0565b9150509250925092565b60008060408385031215610cb657600080fd5b6000610cc28585610bca565b9250506020610c4c85828601610be0565b600060208284031215610ce557600080fd5b6000610c148484610bd5565b600060208284031215610d0357600080fd5b6000610c148484610be0565b600060208284031215610d2157600080fd5b6000610c148484610beb565b610d36816111d7565b82525050565b610d36816111e2565b6000610d5082611010565b610d5a8185611014565b9350610d6a8185602086016111fc565b610d7381611297565b9093019392505050565b6000610d8a602383611014565b9150610d95826112a7565b5060400190565b6000610da9602683611014565b9150610d95826112d9565b6000610dc1602283611014565b9150610d958261130e565b6000610dd9604b83611014565b9150610de48261133f565b5060600190565b6000610df8601d83611014565b9150610e038261139f565b5060200190565b6000610e17602683611014565b9150610d95826113c4565b6000610e2f604d83611014565b9150610de4826113f9565b6000610e47602083611014565b9150610e038261145b565b6000610e5f602583611014565b9150610d9582611480565b6000610e77602483611014565b9150610d95826114b4565b6000610e8f602583611014565b9150610d95826114e7565b6000610ea7601f83611014565b9150610e038261151b565b610d36816111f3565b610d36816111f6565b6020810161033e8284610d2d565b60608101610ee08286610d2d565b610eed6020830185610d2d565b610c146040830184610eb2565b60408101610f088285610d2d565b6103736020830184610eb2565b6020810161033e8284610d3c565b602080825281016103738184610d45565b6020808252810161033e81610d7d565b6020808252810161033e81610d9c565b6020808252810161033e81610db4565b6020808252810161033e81610dcc565b6020808252810161033e81610deb565b6020808252810161033e81610e0a565b6020808252810161033e81610e22565b6020808252810161033e81610e3a565b6020808252810161033e81610e52565b6020808252810161033e81610e6a565b6020808252810161033e81610e82565b6020808252810161033e81610e9a565b6020810161033e8284610eb2565b6020810161033e8284610ebb565b5190565b90815260200190565b6000611028826111f3565b9150611033836111f3565b9250821982111561104657611046611255565b500190565b6000611056826111f3565b9150611061836111f3565b9250826110705761107061126b565b500490565b80825b60018511156110b35780860481111561109357611093611255565b60018516156110a157908102905b80026110ac856112a1565b9450611078565b94509492505050565b60006110c7826111f3565b91506110d2836111f3565b925061037360001984846000826110eb57506001610373565b816110f857506000610373565b816001811461110e576002811461111857611145565b6001915050610373565b60ff84111561112957611129611255565b8360020a91508482111561113f5761113f611255565b50610373565b5060208310610133831016604e8410600b8410161715611178575081810a8381111561117357611173611255565b610373565b6111858484846001611075565b9250905081840481111561119b5761119b611255565b0292915050565b60006111ad826111f3565b91506111b8836111f3565b92508160001904831182151516156111d2576111d2611255565b500290565b600061033e826111e7565b151590565b6001600160a01b031690565b90565b60ff1690565b60005b838110156112175781810151838201526020016111ff565b838111156109865750506000910152565b60028104600182168061123c57607f821691505b6020821081141561124f5761124f611281565b50919050565b634e487b7160e01b600052601160045260246000fd5b634e487b7160e01b600052601260045260246000fd5b634e487b7160e01b600052602260045260246000fd5b601f01601f191690565b60011c90565b7f45524332303a207472616e7366657220746f20746865207a65726f206164647281526265737360e81b602090910152565b7f4f776e61626c653a206e6577206f776e657220697320746865207a65726f206181526564647265737360d01b602090910152565b7f45524332303a20617070726f766520746f20746865207a65726f206164647265815261737360f01b602090910152565b7f636f6e737472616374207573647420746f6b656e20616d6f756e742073686f7581527f6c642062652067726561746572207468616e207265717565737420735854207460208201526a1bdad95b88185b5bdd5b9d60aa1b604090910152565b7f45524332303a20696e73756666696369656e7420616c6c6f77616e63650000009052565b7f45524332303a207472616e7366657220616d6f756e7420657863656564732062815265616c616e636560d01b602090910152565b7f636f6e747261637427732073585420746f6b656e20616d6f756e742073686f7581527f6c642062652067726561746572207468616e207265717565737420757364742060208201526c0616d6f756e74202a203130303609c1b604090910152565b7f4f776e61626c653a2063616c6c6572206973206e6f7420746865206f776e65729052565b7f45524332303a207472616e736665722066726f6d20746865207a65726f206164815264647265737360d81b602090910152565b7f45524332303a20617070726f76652066726f6d20746865207a65726f206164648152637265737360e01b602090910152565b7f45524332303a2064656372656173656420616c6c6f77616e63652062656c6f77815264207a65726f60d81b602090910152565b7f45524332303a206d696e7420746f20746865207a65726f2061646472657373009052565b611549816111d7565b811461088757600080fd5b611549816111e2565b611549816111f356fea2646970667358221220701d317e4c6c85b62eedac76d054928a81b8ed312c6c33e4be50f9c50cc4990d64736f6c63430008010033",
  "linkReferences": {},
  "deployedLinkReferences": {}
}