{
  "_format": "hh-sol-artifact-1",
  "contractName": "sXTtoken",
  "sourceName": "contracts/sXTtoken.sol",
  "abi": [
    {
      "inputs": [
        {
          "internalType": "uint256",
          "name": "initialSupply",
          "type": "uint256"
        }
      ],
      "stateMutability": "nonpayable",
      "type": "constructor"
    },
    {
      "anonymous": false,
      "inputs": [
        {
          "indexed": true,
          "internalType": "address",
          "name": "owner",
          "type": "address"
        },
        {
          "indexed": true,
          "internalType": "address",
          "name": "spender",
          "type": "address"
        },
        {
          "indexed": false,
          "internalType": "uint256",
          "name": "value",
          "type": "uint256"
        }
      ],
      "name": "Approval",
      "type": "event"
    },
    {
      "anonymous": false,
      "inputs": [
        {
          "indexed": true,
          "internalType": "address",
          "name": "previousOwner",
          "type": "address"
        },
        {
          "indexed": true,
          "internalType": "address",
          "name": "newOwner",
          "type": "address"
        }
      ],
      "name": "OwnershipTransferred",
      "type": "event"
    },
    {
      "anonymous": false,
      "inputs": [
        {
          "indexed": true,
          "internalType": "address",
          "name": "from",
          "type": "address"
        },
        {
          "indexed": true,
          "internalType": "address",
          "name": "to",
          "type": "address"
        },
        {
          "indexed": false,
          "internalType": "uint256",
          "name": "value",
          "type": "uint256"
        }
      ],
      "name": "Transfer",
      "type": "event"
    },
    {
      "inputs": [
        {
          "internalType": "address",
          "name": "owner",
          "type": "address"
        },
        {
          "internalType": "address",
          "name": "spender",
          "type": "address"
        }
      ],
      "name": "allowance",
      "outputs": [
        {
          "internalType": "uint256",
          "name": "",
          "type": "uint256"
        }
      ],
      "stateMutability": "view",
      "type": "function"
    },
    {
      "inputs": [
        {
          "internalType": "address",
          "name": "spender",
          "type": "address"
        },
        {
          "internalType": "uint256",
          "name": "amount",
          "type": "uint256"
        }
      ],
      "name": "approve",
      "outputs": [
        {
          "internalType": "bool",
          "name": "",
          "type": "bool"
        }
      ],
      "stateMutability": "nonpayable",
      "type": "function"
    },
    {
      "inputs": [
        {
          "internalType": "address",
          "name": "account",
          "type": "address"
        }
      ],
      "name": "balanceOf",
      "outputs": [
        {
          "internalType": "uint256",
          "name": "",
          "type": "uint256"
        }
      ],
      "stateMutability": "view",
      "type": "function"
    },
    {
      "inputs": [],
      "name": "decimals",
      "outputs": [
        {
          "internalType": "uint8",
          "name": "",
          "type": "uint8"
        }
      ],
      "stateMutability": "view",
      "type": "function"
    },
    {
      "inputs": [
        {
          "internalType": "address",
          "name": "spender",
          "type": "address"
        },
        {
          "internalType": "uint256",
          "name": "subtractedValue",
          "type": "uint256"
        }
      ],
      "name": "decreaseAllowance",
      "outputs": [
        {
          "internalType": "bool",
          "name": "",
          "type": "bool"
        }
      ],
      "stateMutability": "nonpayable",
      "type": "function"
    },
    {
      "inputs": [],
      "name": "getTestUSDTAddress",
      "outputs": [
        {
          "internalType": "address",
          "name": "",
          "type": "address"
        }
      ],
      "stateMutability": "view",
      "type": "function"
    },
    {
      "inputs": [
        {
          "internalType": "address",
          "name": "spender",
          "type": "address"
        },
        {
          "internalType": "uint256",
          "name": "addedValue",
          "type": "uint256"
        }
      ],
      "name": "increaseAllowance",
      "outputs": [
        {
          "internalType": "bool",
          "name": "",
          "type": "bool"
        }
      ],
      "stateMutability": "nonpayable",
      "type": "function"
    },
    {
      "inputs": [],
      "name": "name",
      "outputs": [
        {
          "internalType": "string",
          "name": "",
          "type": "string"
        }
      ],
      "stateMutability": "view",
      "type": "function"
    },
    {
      "inputs": [],
      "name": "owner",
      "outputs": [
        {
          "internalType": "address",
          "name": "",
          "type": "address"
        }
      ],
      "stateMutability": "view",
      "type": "function"
    },
    {
      "inputs": [],
      "name": "renounceOwnership",
      "outputs": [],
      "stateMutability": "nonpayable",
      "type": "function"
    },
    {
      "inputs": [
        {
          "internalType": "address",
          "name": "usdtAddress",
          "type": "address"
        }
      ],
      "name": "setTestUSDTAddress",
      "outputs": [],
      "stateMutability": "nonpayable",
      "type": "function"
    },
    {
      "inputs": [
        {
          "internalType": "uint256",
          "name": "sxtAmount",
          "type": "uint256"
        }
      ],
      "name": "swapFromSXT",
      "outputs": [],
      "stateMutability": "nonpayable",
      "type": "function"
    },
    {
      "inputs": [
        {
          "internalType": "uint256",
          "name": "usdtAmount",
          "type": "uint256"
        }
      ],
      "name": "swapFromUSDT",
      "outputs": [],
      "stateMutability": "nonpayable",
      "type": "function"
    },
    {
      "inputs": [],
      "name": "symbol",
      "outputs": [
        {
          "internalType": "string",
          "name": "",
          "type": "string"
        }
      ],
      "stateMutability": "view",
      "type": "function"
    },
    {
      "inputs": [],
      "name": "totalSupply",
      "outputs": [
        {
          "internalType": "uint256",
          "name": "",
          "type": "uint256"
        }
      ],
      "stateMutability": "view",
      "type": "function"
    },
    {
      "inputs": [
        {
          "internalType": "address",
          "name": "to",
          "type": "address"
        },
        {
          "internalType": "uint256",
          "name": "amount",
          "type": "uint256"
        }
      ],
      "name": "transfer",
      "outputs": [
        {
          "internalType": "bool",
          "name": "",
          "type": "bool"
        }
      ],
      "stateMutability": "nonpayable",
      "type": "function"
    },
    {
      "inputs": [
        {
          "internalType": "address",
          "name": "from",
          "type": "address"
        },
        {
          "internalType": "address",
          "name": "to",
          "type": "address"
        },
        {
          "internalType": "uint256",
          "name": "amount",
          "type": "uint256"
        }
      ],
      "name": "transferFrom",
      "outputs": [
        {
          "internalType": "bool",
          "name": "",
          "type": "bool"
        }
      ],
      "stateMutability": "nonpayable",
      "type": "function"
    },
    {
      "inputs": [
        {
          "internalType": "address",
          "name": "newOwner",
          "type": "address"
        }
      ],
      "name": "transferOwnership",
      "outputs": [],
      "stateMutability": "nonpayable",
      "type": "function"
    }
  ],
  "bytecode": "0x6080604052600680546001600160a01b03191673dac17f958d2ee523a2206206994597c13d831ec7178155601260078190556008556009553480156200004457600080fd5b5060405162001829380380620018298339810160408190526200006791620002f8565b6040518060400160405280600881526020016739ac2a3a37b5b2b760c11b815250604051806040016040528060038152602001621cd61560ea1b8152508160039080519060200190620000bc9291906200023f565b508051620000d29060049060208401906200023f565b505050620000ef620000e96200010260201b60201c565b62000106565b620000fb308262000158565b5062000447565b3390565b600580546001600160a01b038381166001600160a01b0319831681179093556040519116919082907f8be0079c531659141344cd1fd0a4f28419497f9722a3daafe3b4186f6b6457e090600090a35050565b6001600160a01b0382166200018a5760405162461bcd60e51b815260040162000181906200036d565b60405180910390fd5b62000198600083836200023a565b8060026000828254620001ac919062000398565b90915550506001600160a01b03821660009081526020819052604081208054839290620001db90849062000398565b90915550506040516001600160a01b038316906000907fddf252ad1be2c89b69c2b068fc378daa952ba7f163c4a11628f55a4df523b3ef90620002209085906200037f565b60405180910390a362000236600083836200023a565b5050565b505050565b8280546200024d90620003d0565b90600052602060002090601f016020900481019282620002715760008555620002bc565b82601f106200028c57805160ff1916838001178555620002bc565b82800160010185558215620002bc579182015b82811115620002bc5782518255916020019190600101906200029f565b50620002ca929150620002ce565b5090565b5b80821115620002ca5760008155600101620002cf565b8051620002f2816200042d565b92915050565b6000602082840312156200030b57600080fd5b6000620003198484620002e5565b949350505050565b600062000330601f836200038f565b7f45524332303a206d696e7420746f20746865207a65726f206164647265737300815260200192915050565b6200036781620003cd565b82525050565b60208082528101620002f28162000321565b60208101620002f282846200035c565b90815260200190565b6000620003a582620003cd565b9150620003b283620003cd565b92508219821115620003c857620003c862000401565b500190565b90565b600281046001821680620003e557607f821691505b60208210811415620003fb57620003fb62000417565b50919050565b634e487b7160e01b600052601160045260246000fd5b634e487b7160e01b600052602260045260246000fd5b6200043881620003cd565b81146200044457600080fd5b50565b6113d280620004576000396000f3fe608060405234801561001057600080fd5b50600436106101165760003560e01c80638da5cb5b116100a2578063a9059cbb11610071578063a9059cbb14610211578063dd62ed3e14610224578063e13922f814610237578063eb0725661461024a578063f2fde38b1461025d57610116565b80638da5cb5b146101d957806395d89b41146101ee57806398166bb2146101f6578063a457c2d7146101fe57610116565b8063313ce567116100e9578063313ce56714610181578063395093511461019657806370a08231146101a9578063715018a6146101bc5780638551cd82146101c657610116565b806306fdde031461011b578063095ea7b31461013957806318160ddd1461015957806323b872dd1461016e575b600080fd5b610123610270565b6040516101309190611002565b60405180910390f35b61014c610147366004610b70565b610302565b6040516101309190610ff4565b610161610326565b60405161013091906110c3565b61014c61017c366004610b23565b61032c565b61018961035c565b60405161013091906110d1565b61014c6101a4366004610b70565b610361565b6101616101b7366004610ac3565b61038d565b6101c46103a8565b005b6101c46101d4366004610ac3565b6103fc565b6101e161045d565b6040516101309190610fa3565b61012361046c565b6101e161047b565b61014c61020c366004610b70565b61048a565b61014c61021f366004610b70565b6104dd565b610161610232366004610ae9565b6104f5565b6101c4610245366004610bbe565b610520565b6101c4610258366004610bbe565b610699565b6101c461026b366004610ac3565b6107ae565b60606003805461027f906112f7565b80601f01602080910402602001604051908101604052809291908181526020018280546102ab906112f7565b80156102f85780601f106102cd576101008083540402835291602001916102f8565b820191906000526020600020905b8154815290600101906020018083116102db57829003601f168201915b5050505050905090565b60008061030d61081f565b905061031a818585610823565b60019150505b92915050565b60025490565b60008061033761081f565b90506103448582856108d7565b61034f858585610921565b60019150505b9392505050565b601290565b60008061036c61081f565b905061031a81858561037e85896104f5565b61038891906110ec565b610823565b6001600160a01b031660009081526020819052604090205490565b6103b061081f565b6001600160a01b03166103c161045d565b6001600160a01b0316146103f05760405162461bcd60e51b81526004016103e790611083565b60405180910390fd5b6103fa6000610a45565b565b61040461081f565b6001600160a01b031661041561045d565b6001600160a01b03161461043b5760405162461bcd60e51b81526004016103e790611083565b600680546001600160a01b0319166001600160a01b0392909216919091179055565b6005546001600160a01b031690565b60606004805461027f906112f7565b6006546001600160a01b031690565b60008061049561081f565b905060006104a382866104f5565b9050838110156104c55760405162461bcd60e51b81526004016103e7906110b3565b6104d28286868403610823565b506001949350505050565b6000806104e861081f565b905061031a818585610921565b6001600160a01b03918216600090815260016020908152604080832093909416825291909152205490565b60006103e8600854600a610534919061118b565b60095461054290600a61118b565b61054c9085611271565b610556919061111a565b610560919061111a565b6006546040516370a0823160e01b815291925082916001600160a01b03909116906370a0823190610595903090600401610fa3565b60206040518083038186803b1580156105ad57600080fd5b505afa1580156105c1573d6000803e3d6000fd5b505050506040513d601f19601f820116820180604052508101906105e59190610bdc565b10156106035760405162461bcd60e51b81526004016103e790611043565b61060f3360008461032c565b5060065460405163a9059cbb60e01b81526001600160a01b039091169063a9059cbb906106429033908590600401610fd9565b602060405180830381600087803b15801561065c57600080fd5b505af1158015610670573d6000803e3d6000fd5b505050506040513d601f19601f820116820180604052508101906106949190610ba0565b505050565b6000600954600a6106aa919061118b565b6008546106b890600a61118b565b6106c4846103e8611271565b6106ce9190611271565b6106d8919061111a565b9050806106e43061038d565b10156107025760405162461bcd60e51b81526004016103e790611073565b6006546040516323b872dd60e01b81526001600160a01b03909116906323b872dd9061073690339030908790600401610fb1565b602060405180830381600087803b15801561075057600080fd5b505af1158015610764573d6000803e3d6000fd5b505050506040513d601f19601f820116820180604052508101906107889190610ba0565b5060405163a9059cbb60e01b8152309063a9059cbb906106429033908590600401610fd9565b6107b661081f565b6001600160a01b03166107c761045d565b6001600160a01b0316146107ed5760405162461bcd60e51b81526004016103e790611083565b6001600160a01b0381166108135760405162461bcd60e51b81526004016103e790611023565b61081c81610a45565b50565b3390565b6001600160a01b0383166108495760405162461bcd60e51b81526004016103e7906110a3565b6001600160a01b03821661086f5760405162461bcd60e51b81526004016103e790611033565b6001600160a01b0380841660008181526001602090815260408083209487168084529490915290819020849055517f8c5be1e5ebec7d5bd14f71427d1e84f3dd0314c0f7b2291e5b200ac8c7c3b925906108ca9085906110c3565b60405180910390a3505050565b60006108e384846104f5565b9050600019811461091b578181101561090e5760405162461bcd60e51b81526004016103e790611053565b61091b8484848403610823565b50505050565b6001600160a01b0383166109475760405162461bcd60e51b81526004016103e790611093565b6001600160a01b03821661096d5760405162461bcd60e51b81526004016103e790611013565b610978838383610694565b6001600160a01b038316600090815260208190526040902054818110156109b15760405162461bcd60e51b81526004016103e790611063565b6001600160a01b038085166000908152602081905260408082208585039055918516815290812080548492906109e89084906110ec565b92505081905550826001600160a01b0316846001600160a01b03167fddf252ad1be2c89b69c2b068fc378daa952ba7f163c4a11628f55a4df523b3ef84604051610a3291906110c3565b60405180910390a361091b848484610694565b600580546001600160a01b038381166001600160a01b0319831681179093556040519116919082907f8be0079c531659141344cd1fd0a4f28419497f9722a3daafe3b4186f6b6457e090600090a35050565b803561032081611376565b80516103208161138a565b803561032081611393565b805161032081611393565b600060208284031215610ad557600080fd5b6000610ae18484610a97565b949350505050565b60008060408385031215610afc57600080fd5b6000610b088585610a97565b9250506020610b1985828601610a97565b9150509250929050565b600080600060608486031215610b3857600080fd5b6000610b448686610a97565b9350506020610b5586828701610a97565b9250506040610b6686828701610aad565b9150509250925092565b60008060408385031215610b8357600080fd5b6000610b8f8585610a97565b9250506020610b1985828601610aad565b600060208284031215610bb257600080fd5b6000610ae18484610aa2565b600060208284031215610bd057600080fd5b6000610ae18484610aad565b600060208284031215610bee57600080fd5b6000610ae18484610ab8565b610c03816112a6565b82525050565b610c03816112b1565b6000610c1d826110df565b610c2781856110e3565b9350610c378185602086016112cb565b610c4081611366565b9093019392505050565b6000610c576023836110e3565b7f45524332303a207472616e7366657220746f20746865207a65726f206164647281526265737360e81b602082015260400192915050565b6000610c9c6026836110e3565b7f4f776e61626c653a206e6577206f776e657220697320746865207a65726f206181526564647265737360d01b602082015260400192915050565b6000610ce46022836110e3565b7f45524332303a20617070726f766520746f20746865207a65726f206164647265815261737360f01b602082015260400192915050565b6000610d28604b836110e3565b7f636f6e737472616374207573647420746f6b656e20616d6f756e742073686f7581527f6c642062652067726561746572207468616e207265717565737420735854207460208201526a1bdad95b88185b5bdd5b9d60aa1b604082015260600192915050565b6000610d9b601d836110e3565b7f45524332303a20696e73756666696369656e7420616c6c6f77616e6365000000815260200192915050565b6000610dd46026836110e3565b7f45524332303a207472616e7366657220616d6f756e7420657863656564732062815265616c616e636560d01b602082015260400192915050565b6000610e1c604d836110e3565b7f636f6e747261637427732073585420746f6b656e20616d6f756e742073686f7581527f6c642062652067726561746572207468616e207265717565737420757364742060208201526c0616d6f756e74202a203130303609c1b604082015260600192915050565b6000610e916020836110e3565b7f4f776e61626c653a2063616c6c6572206973206e6f7420746865206f776e6572815260200192915050565b6000610eca6025836110e3565b7f45524332303a207472616e736665722066726f6d20746865207a65726f206164815264647265737360d81b602082015260400192915050565b6000610f116024836110e3565b7f45524332303a20617070726f76652066726f6d20746865207a65726f206164648152637265737360e01b602082015260400192915050565b6000610f576025836110e3565b7f45524332303a2064656372656173656420616c6c6f77616e63652062656c6f77815264207a65726f60d81b602082015260400192915050565b610c03816112c2565b610c03816112c5565b602081016103208284610bfa565b60608101610fbf8286610bfa565b610fcc6020830185610bfa565b610ae16040830184610f91565b60408101610fe78285610bfa565b6103556020830184610f91565b602081016103208284610c09565b602080825281016103558184610c12565b6020808252810161032081610c4a565b6020808252810161032081610c8f565b6020808252810161032081610cd7565b6020808252810161032081610d1b565b6020808252810161032081610d8e565b6020808252810161032081610dc7565b6020808252810161032081610e0f565b6020808252810161032081610e84565b6020808252810161032081610ebd565b6020808252810161032081610f04565b6020808252810161032081610f4a565b602081016103208284610f91565b602081016103208284610f9a565b5190565b90815260200190565b60006110f7826112c2565b9150611102836112c2565b9250821982111561111557611115611324565b500190565b6000611125826112c2565b9150611130836112c2565b92508261113f5761113f61133a565b500490565b80825b60018511156111825780860481111561116257611162611324565b600185161561117057908102905b800261117b85611370565b9450611147565b94509492505050565b6000611196826112c2565b91506111a1836112c2565b925061035560001984846000826111ba57506001610355565b816111c757506000610355565b81600181146111dd57600281146111e757611214565b6001915050610355565b60ff8411156111f8576111f8611324565b8360020a91508482111561120e5761120e611324565b50610355565b5060208310610133831016604e8410600b8410161715611247575081810a8381111561124257611242611324565b610355565b6112548484846001611144565b9250905081840481111561126a5761126a611324565b0292915050565b600061127c826112c2565b9150611287836112c2565b92508160001904831182151516156112a1576112a1611324565b500290565b6000610320826112b6565b151590565b6001600160a01b031690565b90565b60ff1690565b60005b838110156112e65781810151838201526020016112ce565b8381111561091b5750506000910152565b60028104600182168061130b57607f821691505b6020821081141561131e5761131e611350565b50919050565b634e487b7160e01b600052601160045260246000fd5b634e487b7160e01b600052601260045260246000fd5b634e487b7160e01b600052602260045260246000fd5b601f01601f191690565b60011c90565b61137f816112a6565b811461081c57600080fd5b61137f816112b1565b61137f816112c256fea2646970667358221220d0c7df7945d6af3b2b19dc645671fc0960c6631d96c9fffba8922dae02d6dcc164736f6c63430008000033",
  "linkReferences": {},
  "deployedLinkReferences": {}
}