{
  "_format": "hh-sol-artifact-1",
  "contractName": "XTtoken",
  "sourceName": "contracts/XTtoken.sol",
  "abi": [
    {
      "inputs": [
        {
          "internalType": "uint256",
          "name": "initialSupply",
          "type": "uint256"
        }
      ],
      "stateMutability": "nonpayable",
      "type": "constructor"
    },
    {
      "anonymous": false,
      "inputs": [
        {
          "indexed": true,
          "internalType": "address",
          "name": "owner",
          "type": "address"
        },
        {
          "indexed": true,
          "internalType": "address",
          "name": "spender",
          "type": "address"
        },
        {
          "indexed": false,
          "internalType": "uint256",
          "name": "value",
          "type": "uint256"
        }
      ],
      "name": "Approval",
      "type": "event"
    },
    {
      "anonymous": false,
      "inputs": [
        {
          "indexed": true,
          "internalType": "address",
          "name": "previousOwner",
          "type": "address"
        },
        {
          "indexed": true,
          "internalType": "address",
          "name": "newOwner",
          "type": "address"
        }
      ],
      "name": "OwnershipTransferred",
      "type": "event"
    },
    {
      "anonymous": false,
      "inputs": [
        {
          "indexed": true,
          "internalType": "address",
          "name": "from",
          "type": "address"
        },
        {
          "indexed": true,
          "internalType": "address",
          "name": "to",
          "type": "address"
        },
        {
          "indexed": false,
          "internalType": "uint256",
          "name": "value",
          "type": "uint256"
        }
      ],
      "name": "Transfer",
      "type": "event"
    },
    {
      "inputs": [
        {
          "internalType": "address",
          "name": "owner",
          "type": "address"
        },
        {
          "internalType": "address",
          "name": "spender",
          "type": "address"
        }
      ],
      "name": "allowance",
      "outputs": [
        {
          "internalType": "uint256",
          "name": "",
          "type": "uint256"
        }
      ],
      "stateMutability": "view",
      "type": "function"
    },
    {
      "inputs": [
        {
          "internalType": "address",
          "name": "spender",
          "type": "address"
        },
        {
          "internalType": "uint256",
          "name": "amount",
          "type": "uint256"
        }
      ],
      "name": "approve",
      "outputs": [
        {
          "internalType": "bool",
          "name": "",
          "type": "bool"
        }
      ],
      "stateMutability": "nonpayable",
      "type": "function"
    },
    {
      "inputs": [
        {
          "internalType": "address",
          "name": "account",
          "type": "address"
        }
      ],
      "name": "balanceOf",
      "outputs": [
        {
          "internalType": "uint256",
          "name": "",
          "type": "uint256"
        }
      ],
      "stateMutability": "view",
      "type": "function"
    },
    {
      "inputs": [
        {
          "internalType": "uint256",
          "name": "tokenAmount",
          "type": "uint256"
        }
      ],
      "name": "buy",
      "outputs": [],
      "stateMutability": "nonpayable",
      "type": "function"
    },
    {
      "inputs": [],
      "name": "decimals",
      "outputs": [
        {
          "internalType": "uint8",
          "name": "",
          "type": "uint8"
        }
      ],
      "stateMutability": "view",
      "type": "function"
    },
    {
      "inputs": [
        {
          "internalType": "address",
          "name": "spender",
          "type": "address"
        },
        {
          "internalType": "uint256",
          "name": "subtractedValue",
          "type": "uint256"
        }
      ],
      "name": "decreaseAllowance",
      "outputs": [
        {
          "internalType": "bool",
          "name": "",
          "type": "bool"
        }
      ],
      "stateMutability": "nonpayable",
      "type": "function"
    },
    {
      "inputs": [],
      "name": "getSXTAddress",
      "outputs": [
        {
          "internalType": "address",
          "name": "",
          "type": "address"
        }
      ],
      "stateMutability": "view",
      "type": "function"
    },
    {
      "inputs": [],
      "name": "getTestUSDTAddress",
      "outputs": [
        {
          "internalType": "address",
          "name": "",
          "type": "address"
        }
      ],
      "stateMutability": "view",
      "type": "function"
    },
    {
      "inputs": [
        {
          "internalType": "address",
          "name": "spender",
          "type": "address"
        },
        {
          "internalType": "uint256",
          "name": "addedValue",
          "type": "uint256"
        }
      ],
      "name": "increaseAllowance",
      "outputs": [
        {
          "internalType": "bool",
          "name": "",
          "type": "bool"
        }
      ],
      "stateMutability": "nonpayable",
      "type": "function"
    },
    {
      "inputs": [],
      "name": "name",
      "outputs": [
        {
          "internalType": "string",
          "name": "",
          "type": "string"
        }
      ],
      "stateMutability": "view",
      "type": "function"
    },
    {
      "inputs": [],
      "name": "owner",
      "outputs": [
        {
          "internalType": "address",
          "name": "",
          "type": "address"
        }
      ],
      "stateMutability": "view",
      "type": "function"
    },
    {
      "inputs": [],
      "name": "renounceOwnership",
      "outputs": [],
      "stateMutability": "nonpayable",
      "type": "function"
    },
    {
      "inputs": [
        {
          "internalType": "uint256",
          "name": "tokenAmount",
          "type": "uint256"
        }
      ],
      "name": "sale",
      "outputs": [],
      "stateMutability": "nonpayable",
      "type": "function"
    },
    {
      "inputs": [
        {
          "internalType": "address",
          "name": "sXTAddress",
          "type": "address"
        }
      ],
      "name": "setSXTAddress",
      "outputs": [],
      "stateMutability": "nonpayable",
      "type": "function"
    },
    {
      "inputs": [
        {
          "internalType": "address",
          "name": "usdtAddress",
          "type": "address"
        }
      ],
      "name": "setTestUSDTAddress",
      "outputs": [],
      "stateMutability": "nonpayable",
      "type": "function"
    },
    {
      "inputs": [],
      "name": "symbol",
      "outputs": [
        {
          "internalType": "string",
          "name": "",
          "type": "string"
        }
      ],
      "stateMutability": "view",
      "type": "function"
    },
    {
      "inputs": [],
      "name": "totalSupply",
      "outputs": [
        {
          "internalType": "uint256",
          "name": "",
          "type": "uint256"
        }
      ],
      "stateMutability": "view",
      "type": "function"
    },
    {
      "inputs": [
        {
          "internalType": "address",
          "name": "to",
          "type": "address"
        },
        {
          "internalType": "uint256",
          "name": "amount",
          "type": "uint256"
        }
      ],
      "name": "transfer",
      "outputs": [
        {
          "internalType": "bool",
          "name": "",
          "type": "bool"
        }
      ],
      "stateMutability": "nonpayable",
      "type": "function"
    },
    {
      "inputs": [
        {
          "internalType": "address",
          "name": "from",
          "type": "address"
        },
        {
          "internalType": "address",
          "name": "to",
          "type": "address"
        },
        {
          "internalType": "uint256",
          "name": "amount",
          "type": "uint256"
        }
      ],
      "name": "transferFrom",
      "outputs": [
        {
          "internalType": "bool",
          "name": "",
          "type": "bool"
        }
      ],
      "stateMutability": "nonpayable",
      "type": "function"
    },
    {
      "inputs": [
        {
          "internalType": "address",
          "name": "newOwner",
          "type": "address"
        }
      ],
      "name": "transferOwnership",
      "outputs": [],
      "stateMutability": "nonpayable",
      "type": "function"
    }
  ],
  "bytecode": "0x6080604052600680546001600160a01b031990811673dac17f958d2ee523a2206206994597c13d831ec717825560078054909116735f2f371f7298d50180b950389817f76a63e1051217905560126008819055600955600a553480156200006557600080fd5b5060405162001a5538038062001a5583398101604081905262000088916200030d565b60408051808201825260078152662c2a3a37b5b2b760c91b602080830191825283518085019094526002845261161560f21b908401528151919291620000d19160039162000254565b508051620000e790600490602084019062000254565b50505062000104620000fe6200011760201b60201c565b6200011b565b6200011030826200016d565b506200045c565b3390565b600580546001600160a01b038381166001600160a01b0319831681179093556040519116919082907f8be0079c531659141344cd1fd0a4f28419497f9722a3daafe3b4186f6b6457e090600090a35050565b6001600160a01b0382166200019f5760405162461bcd60e51b8152600401620001969062000382565b60405180910390fd5b620001ad600083836200024f565b8060026000828254620001c19190620003ad565b90915550506001600160a01b03821660009081526020819052604081208054839290620001f0908490620003ad565b90915550506040516001600160a01b038316906000907fddf252ad1be2c89b69c2b068fc378daa952ba7f163c4a11628f55a4df523b3ef906200023590859062000394565b60405180910390a36200024b600083836200024f565b5050565b505050565b8280546200026290620003e5565b90600052602060002090601f016020900481019282620002865760008555620002d1565b82601f10620002a157805160ff1916838001178555620002d1565b82800160010185558215620002d1579182015b82811115620002d1578251825591602001919060010190620002b4565b50620002df929150620002e3565b5090565b5b80821115620002df5760008155600101620002e4565b8051620003078162000442565b92915050565b6000602082840312156200032057600080fd5b60006200032e8484620002fa565b949350505050565b600062000345601f83620003a4565b7f45524332303a206d696e7420746f20746865207a65726f206164647265737300815260200192915050565b6200037c81620003e2565b82525050565b60208082528101620003078162000336565b6020810162000307828462000371565b90815260200190565b6000620003ba82620003e2565b9150620003c783620003e2565b92508219821115620003dd57620003dd62000416565b500190565b90565b600281046001821680620003fa57607f821691505b602082108114156200041057620004106200042c565b50919050565b634e487b7160e01b600052601160045260246000fd5b634e487b7160e01b600052602260045260246000fd5b6200044d81620003e2565b81146200045957600080fd5b50565b6115e9806200046c6000396000f3fe608060405234801561001057600080fd5b506004361061012c5760003560e01c806391c794b6116100ad578063a9059cbb11610071578063a9059cbb14610242578063bd29d9eb14610255578063d96a094a14610268578063dd62ed3e1461027b578063f2fde38b1461028e5761012c565b806391c794b61461020457806395d89b411461020c578063960327021461021457806398166bb214610227578063a457c2d71461022f5761012c565b806339509351116100f457806339509351146101ac57806370a08231146101bf578063715018a6146101d25780638551cd82146101dc5780638da5cb5b146101ef5761012c565b806306fdde0314610131578063095ea7b31461014f57806318160ddd1461016f57806323b872dd14610184578063313ce56714610197575b600080fd5b6101396102a1565b6040516101469190611209565b60405180910390f35b61016261015d366004610d38565b610333565b60405161014691906111fb565b610177610357565b60405161014691906112da565b610162610192366004610ceb565b61035d565b61019f61038d565b60405161014691906112e8565b6101626101ba366004610d38565b610392565b6101776101cd366004610c8b565b6103be565b6101da6103d9565b005b6101da6101ea366004610c8b565b61042d565b6101f761048e565b60405161014691906111aa565b6101f761049d565b6101396104ac565b6101da610222366004610d86565b6104bb565b6101f7610639565b61016261023d366004610d38565b610648565b610162610250366004610d38565b61069b565b6101da610263366004610c8b565b6106b3565b6101da610276366004610d86565b610714565b610177610289366004610cb1565b610951565b6101da61029c366004610c8b565b61097c565b6060600380546102b09061150e565b80601f01602080910402602001604051908101604052809291908181526020018280546102dc9061150e565b80156103295780601f106102fe57610100808354040283529160200191610329565b820191906000526020600020905b81548152906001019060200180831161030c57829003601f168201915b5050505050905090565b60008061033e6109ed565b905061034b8185856109f1565b60019150505b92915050565b60025490565b6000806103686109ed565b9050610375858285610aa5565b610380858585610ae9565b60019150505b9392505050565b601290565b60008061039d6109ed565b905061034b8185856103af8589610951565b6103b99190611303565b6109f1565b6001600160a01b031660009081526020819052604090205490565b6103e16109ed565b6001600160a01b03166103f261048e565b6001600160a01b0316146104215760405162461bcd60e51b81526004016104189061128a565b60405180910390fd5b61042b6000610c0d565b565b6104356109ed565b6001600160a01b031661044661048e565b6001600160a01b03161461046c5760405162461bcd60e51b81526004016104189061128a565b600680546001600160a01b0319166001600160a01b0392909216919091179055565b6005546001600160a01b031690565b6007546001600160a01b031690565b6060600480546102b09061150e565b6000600854600a6104cc91906113a2565b600a80546104d9916113a2565b6104e484600a611488565b6104ee9190611488565b6104f89190611331565b905061050582600a611488565b6006546040516370a0823160e01b81526001600160a01b03909116906370a08231906105359030906004016111aa565b60206040518083038186803b15801561054d57600080fd5b505afa158015610561573d6000803e3d6000fd5b505050506040513d601f19601f820116820180604052508101906105859190610da4565b10156105a35760405162461bcd60e51b81526004016104189061127a565b6105af3360008461035d565b5060065460405163a9059cbb60e01b81526001600160a01b039091169063a9059cbb906105e290339085906004016111e0565b602060405180830381600087803b1580156105fc57600080fd5b505af1158015610610573d6000803e3d6000fd5b505050506040513d601f19601f820116820180604052508101906106349190610d68565b505050565b6006546001600160a01b031690565b6000806106536109ed565b905060006106618286610951565b9050838110156106835760405162461bcd60e51b8152600401610418906112ca565b61069082868684036109f1565b506001949350505050565b6000806106a66109ed565b905061034b818585610ae9565b6106bb6109ed565b6001600160a01b03166106cc61048e565b6001600160a01b0316146106f25760405162461bcd60e51b81526004016104189061128a565b600780546001600160a01b0319166001600160a01b0392909216919091179055565b6000600854600a61072591906113a2565b600a8054610732916113a2565b61073d84600a611488565b6107479190611488565b6107519190611331565b90506000610761836103e8611488565b90508261076d306103be565b101561078b5760405162461bcd60e51b8152600401610418906112ba565b6006546040516323b872dd60e01b81526001600160a01b03909116906323b872dd906107bf903390309087906004016111b8565b602060405180830381600087803b1580156107d957600080fd5b505af11580156107ed573d6000803e3d6000fd5b505050506040513d601f19601f820116820180604052508101906108119190610d68565b5061081e836103e8611488565b6007546040516370a0823160e01b81526001600160a01b03909116906370a082319061084e9030906004016111aa565b60206040518083038186803b15801561086657600080fd5b505afa15801561087a573d6000803e3d6000fd5b505050506040513d601f19601f8201168201806040525081019061089e9190610da4565b10156108bc5760405162461bcd60e51b81526004016104189061124a565b60075460405163a9059cbb60e01b81526001600160a01b039091169063a9059cbb906108ee90339085906004016111e0565b602060405180830381600087803b15801561090857600080fd5b505af115801561091c573d6000803e3d6000fd5b505050506040513d601f19601f820116820180604052508101906109409190610d68565b5061094b338461069b565b50505050565b6001600160a01b03918216600090815260016020908152604080832093909416825291909152205490565b6109846109ed565b6001600160a01b031661099561048e565b6001600160a01b0316146109bb5760405162461bcd60e51b81526004016104189061128a565b6001600160a01b0381166109e15760405162461bcd60e51b81526004016104189061122a565b6109ea81610c0d565b50565b3390565b6001600160a01b038316610a175760405162461bcd60e51b8152600401610418906112aa565b6001600160a01b038216610a3d5760405162461bcd60e51b81526004016104189061123a565b6001600160a01b0380841660008181526001602090815260408083209487168084529490915290819020849055517f8c5be1e5ebec7d5bd14f71427d1e84f3dd0314c0f7b2291e5b200ac8c7c3b92590610a989085906112da565b60405180910390a3505050565b6000610ab18484610951565b9050600019811461094b5781811015610adc5760405162461bcd60e51b81526004016104189061125a565b61094b84848484036109f1565b6001600160a01b038316610b0f5760405162461bcd60e51b81526004016104189061129a565b6001600160a01b038216610b355760405162461bcd60e51b81526004016104189061121a565b610b40838383610634565b6001600160a01b03831660009081526020819052604090205481811015610b795760405162461bcd60e51b81526004016104189061126a565b6001600160a01b03808516600090815260208190526040808220858503905591851681529081208054849290610bb0908490611303565b92505081905550826001600160a01b0316846001600160a01b03167fddf252ad1be2c89b69c2b068fc378daa952ba7f163c4a11628f55a4df523b3ef84604051610bfa91906112da565b60405180910390a361094b848484610634565b600580546001600160a01b038381166001600160a01b0319831681179093556040519116919082907f8be0079c531659141344cd1fd0a4f28419497f9722a3daafe3b4186f6b6457e090600090a35050565b80356103518161158d565b8051610351816115a1565b8035610351816115aa565b8051610351816115aa565b600060208284031215610c9d57600080fd5b6000610ca98484610c5f565b949350505050565b60008060408385031215610cc457600080fd5b6000610cd08585610c5f565b9250506020610ce185828601610c5f565b9150509250929050565b600080600060608486031215610d0057600080fd5b6000610d0c8686610c5f565b9350506020610d1d86828701610c5f565b9250506040610d2e86828701610c75565b9150509250925092565b60008060408385031215610d4b57600080fd5b6000610d578585610c5f565b9250506020610ce185828601610c75565b600060208284031215610d7a57600080fd5b6000610ca98484610c6a565b600060208284031215610d9857600080fd5b6000610ca98484610c75565b600060208284031215610db657600080fd5b6000610ca98484610c80565b610dcb816114bd565b82525050565b610dcb816114c8565b6000610de5826112f6565b610def81856112fa565b9350610dff8185602086016114e2565b610e088161157d565b9093019392505050565b6000610e1f6023836112fa565b7f45524332303a207472616e7366657220746f20746865207a65726f206164647281526265737360e81b602082015260400192915050565b6000610e646026836112fa565b7f4f776e61626c653a206e6577206f776e657220697320746865207a65726f206181526564647265737360d01b602082015260400192915050565b6000610eac6022836112fa565b7f45524332303a20617070726f766520746f20746865207a65726f206164647265815261737360f01b602082015260400192915050565b6000610ef06041836112fa565b7f636f6e747261637427732073585420746f6b656e20616d6f756e742073686f7581527f6c642062652067726561746572207468616e207265717565737420616d6f756e6020820152601d60fa1b604082015260600192915050565b6000610f59601d836112fa565b7f45524332303a20696e73756666696369656e7420616c6c6f77616e6365000000815260200192915050565b6000610f926026836112fa565b7f45524332303a207472616e7366657220616d6f756e7420657863656564732062815265616c616e636560d01b602082015260400192915050565b6000610fda6040836112fa565b7f636f6e7472616374277320585420746f6b656e20616d6f756e742073686f756c81527f642062652067726561746572207468616e207265717565737420616d6f756e74602082015260400192915050565b60006110396020836112fa565b7f4f776e61626c653a2063616c6c6572206973206e6f7420746865206f776e6572815260200192915050565b60006110726025836112fa565b7f45524332303a207472616e736665722066726f6d20746865207a65726f206164815264647265737360d81b602082015260400192915050565b60006110b96024836112fa565b7f45524332303a20617070726f76652066726f6d20746865207a65726f206164648152637265737360e01b602082015260400192915050565b60006110ff603d836112fa565b7f636f6e7472616374277320746f6b656e20616d6f756e742073686f756c64206281527f652067726561746572207468616e207265717565737420616d6f756e74000000602082015260400192915050565b600061115e6025836112fa565b7f45524332303a2064656372656173656420616c6c6f77616e63652062656c6f77815264207a65726f60d81b602082015260400192915050565b610dcb816114d9565b610dcb816114dc565b602081016103518284610dc2565b606081016111c68286610dc2565b6111d36020830185610dc2565b610ca96040830184611198565b604081016111ee8285610dc2565b6103866020830184611198565b602081016103518284610dd1565b602080825281016103868184610dda565b6020808252810161035181610e12565b6020808252810161035181610e57565b6020808252810161035181610e9f565b6020808252810161035181610ee3565b6020808252810161035181610f4c565b6020808252810161035181610f85565b6020808252810161035181610fcd565b602080825281016103518161102c565b6020808252810161035181611065565b60208082528101610351816110ac565b60208082528101610351816110f2565b6020808252810161035181611151565b602081016103518284611198565b6020810161035182846111a1565b5190565b90815260200190565b600061130e826114d9565b9150611319836114d9565b9250821982111561132c5761132c61153b565b500190565b600061133c826114d9565b9150611347836114d9565b92508261135657611356611551565b500490565b80825b6001851115611399578086048111156113795761137961153b565b600185161561138757908102905b800261139285611587565b945061135e565b94509492505050565b60006113ad826114d9565b91506113b8836114d9565b925061038660001984846000826113d157506001610386565b816113de57506000610386565b81600181146113f457600281146113fe5761142b565b6001915050610386565b60ff84111561140f5761140f61153b565b8360020a9150848211156114255761142561153b565b50610386565b5060208310610133831016604e8410600b841016171561145e575081810a838111156114595761145961153b565b610386565b61146b848484600161135b565b925090508184048111156114815761148161153b565b0292915050565b6000611493826114d9565b915061149e836114d9565b92508160001904831182151516156114b8576114b861153b565b500290565b6000610351826114cd565b151590565b6001600160a01b031690565b90565b60ff1690565b60005b838110156114fd5781810151838201526020016114e5565b8381111561094b5750506000910152565b60028104600182168061152257607f821691505b6020821081141561153557611535611567565b50919050565b634e487b7160e01b600052601160045260246000fd5b634e487b7160e01b600052601260045260246000fd5b634e487b7160e01b600052602260045260246000fd5b601f01601f191690565b60011c90565b611596816114bd565b81146109ea57600080fd5b611596816114c8565b611596816114d956fea26469706673582212202f7e0b591cee84bf02803449bbea379e514e1d169ab8b3289b42e7e641774d4464736f6c63430008000033",
  "linkReferences": {},
  "deployedLinkReferences": {}
}