{
  "_format": "hh-sol-artifact-1",
  "contractName": "XTtoken",
  "sourceName": "contracts/XTtoken.sol",
  "abi": [
    {
      "inputs": [
        {
          "internalType": "uint256",
          "name": "_initialSupply",
          "type": "uint256"
        }
      ],
      "stateMutability": "nonpayable",
      "type": "constructor"
    },
    {
      "anonymous": false,
      "inputs": [
        {
          "indexed": true,
          "internalType": "address",
          "name": "owner",
          "type": "address"
        },
        {
          "indexed": true,
          "internalType": "address",
          "name": "spender",
          "type": "address"
        },
        {
          "indexed": false,
          "internalType": "uint256",
          "name": "value",
          "type": "uint256"
        }
      ],
      "name": "Approval",
      "type": "event"
    },
    {
      "anonymous": false,
      "inputs": [
        {
          "indexed": true,
          "internalType": "address",
          "name": "previousOwner",
          "type": "address"
        },
        {
          "indexed": true,
          "internalType": "address",
          "name": "newOwner",
          "type": "address"
        }
      ],
      "name": "OwnershipTransferred",
      "type": "event"
    },
    {
      "anonymous": false,
      "inputs": [
        {
          "indexed": true,
          "internalType": "address",
          "name": "from",
          "type": "address"
        },
        {
          "indexed": true,
          "internalType": "address",
          "name": "to",
          "type": "address"
        },
        {
          "indexed": false,
          "internalType": "uint256",
          "name": "value",
          "type": "uint256"
        }
      ],
      "name": "Transfer",
      "type": "event"
    },
    {
      "inputs": [
        {
          "internalType": "address",
          "name": "owner",
          "type": "address"
        },
        {
          "internalType": "address",
          "name": "spender",
          "type": "address"
        }
      ],
      "name": "allowance",
      "outputs": [
        {
          "internalType": "uint256",
          "name": "",
          "type": "uint256"
        }
      ],
      "stateMutability": "view",
      "type": "function"
    },
    {
      "inputs": [
        {
          "internalType": "address",
          "name": "spender",
          "type": "address"
        },
        {
          "internalType": "uint256",
          "name": "amount",
          "type": "uint256"
        }
      ],
      "name": "approve",
      "outputs": [
        {
          "internalType": "bool",
          "name": "",
          "type": "bool"
        }
      ],
      "stateMutability": "nonpayable",
      "type": "function"
    },
    {
      "inputs": [
        {
          "internalType": "address",
          "name": "account",
          "type": "address"
        }
      ],
      "name": "balanceOf",
      "outputs": [
        {
          "internalType": "uint256",
          "name": "",
          "type": "uint256"
        }
      ],
      "stateMutability": "view",
      "type": "function"
    },
    {
      "inputs": [
        {
          "internalType": "uint256",
          "name": "_xtTokenAmount",
          "type": "uint256"
        }
      ],
      "name": "buy",
      "outputs": [],
      "stateMutability": "nonpayable",
      "type": "function"
    },
    {
      "inputs": [],
      "name": "decimals",
      "outputs": [
        {
          "internalType": "uint8",
          "name": "",
          "type": "uint8"
        }
      ],
      "stateMutability": "view",
      "type": "function"
    },
    {
      "inputs": [
        {
          "internalType": "address",
          "name": "spender",
          "type": "address"
        },
        {
          "internalType": "uint256",
          "name": "subtractedValue",
          "type": "uint256"
        }
      ],
      "name": "decreaseAllowance",
      "outputs": [
        {
          "internalType": "bool",
          "name": "",
          "type": "bool"
        }
      ],
      "stateMutability": "nonpayable",
      "type": "function"
    },
    {
      "inputs": [],
      "name": "getSXTAddress",
      "outputs": [
        {
          "internalType": "address",
          "name": "",
          "type": "address"
        }
      ],
      "stateMutability": "view",
      "type": "function"
    },
    {
      "inputs": [],
      "name": "getTestUSDTAddress",
      "outputs": [
        {
          "internalType": "address",
          "name": "",
          "type": "address"
        }
      ],
      "stateMutability": "view",
      "type": "function"
    },
    {
      "inputs": [
        {
          "internalType": "address",
          "name": "spender",
          "type": "address"
        },
        {
          "internalType": "uint256",
          "name": "addedValue",
          "type": "uint256"
        }
      ],
      "name": "increaseAllowance",
      "outputs": [
        {
          "internalType": "bool",
          "name": "",
          "type": "bool"
        }
      ],
      "stateMutability": "nonpayable",
      "type": "function"
    },
    {
      "inputs": [
        {
          "internalType": "address",
          "name": "_address",
          "type": "address"
        },
        {
          "internalType": "uint256",
          "name": "_amount",
          "type": "uint256"
        }
      ],
      "name": "mint",
      "outputs": [],
      "stateMutability": "nonpayable",
      "type": "function"
    },
    {
      "inputs": [],
      "name": "name",
      "outputs": [
        {
          "internalType": "string",
          "name": "",
          "type": "string"
        }
      ],
      "stateMutability": "view",
      "type": "function"
    },
    {
      "inputs": [],
      "name": "owner",
      "outputs": [
        {
          "internalType": "address",
          "name": "",
          "type": "address"
        }
      ],
      "stateMutability": "view",
      "type": "function"
    },
    {
      "inputs": [],
      "name": "renounceOwnership",
      "outputs": [],
      "stateMutability": "nonpayable",
      "type": "function"
    },
    {
      "inputs": [
        {
          "internalType": "uint256",
          "name": "_xtTokenAmount",
          "type": "uint256"
        }
      ],
      "name": "sale",
      "outputs": [],
      "stateMutability": "nonpayable",
      "type": "function"
    },
    {
      "inputs": [
        {
          "internalType": "address",
          "name": "_sXTAddress",
          "type": "address"
        }
      ],
      "name": "setSXTAddress",
      "outputs": [],
      "stateMutability": "nonpayable",
      "type": "function"
    },
    {
      "inputs": [
        {
          "internalType": "address",
          "name": "_usdtAddress",
          "type": "address"
        }
      ],
      "name": "setTestUSDTAddress",
      "outputs": [],
      "stateMutability": "nonpayable",
      "type": "function"
    },
    {
      "inputs": [],
      "name": "symbol",
      "outputs": [
        {
          "internalType": "string",
          "name": "",
          "type": "string"
        }
      ],
      "stateMutability": "view",
      "type": "function"
    },
    {
      "inputs": [],
      "name": "totalSupply",
      "outputs": [
        {
          "internalType": "uint256",
          "name": "",
          "type": "uint256"
        }
      ],
      "stateMutability": "view",
      "type": "function"
    },
    {
      "inputs": [
        {
          "internalType": "address",
          "name": "to",
          "type": "address"
        },
        {
          "internalType": "uint256",
          "name": "amount",
          "type": "uint256"
        }
      ],
      "name": "transfer",
      "outputs": [
        {
          "internalType": "bool",
          "name": "",
          "type": "bool"
        }
      ],
      "stateMutability": "nonpayable",
      "type": "function"
    },
    {
      "inputs": [
        {
          "internalType": "address",
          "name": "from",
          "type": "address"
        },
        {
          "internalType": "address",
          "name": "to",
          "type": "address"
        },
        {
          "internalType": "uint256",
          "name": "amount",
          "type": "uint256"
        }
      ],
      "name": "transferFrom",
      "outputs": [
        {
          "internalType": "bool",
          "name": "",
          "type": "bool"
        }
      ],
      "stateMutability": "nonpayable",
      "type": "function"
    },
    {
      "inputs": [
        {
          "internalType": "address",
          "name": "newOwner",
          "type": "address"
        }
      ],
      "name": "transferOwnership",
      "outputs": [],
      "stateMutability": "nonpayable",
      "type": "function"
    }
  ],
  "bytecode": "0x6080604052600680546001600160a01b031990811673dac17f958d2ee523a2206206994597c13d831ec717825560078054909116735f2f371f7298d50180b950389817f76a63e1051217905560126008819055600955600a553480156200006557600080fd5b5060405162001efb38038062001efb83398101604081905262000088916200030d565b60408051808201825260078152662c2a3a37b5b2b760c91b602080830191825283518085019094526002845261161560f21b908401528151919291620000d19160039162000254565b508051620000e790600490602084019062000254565b50505062000104620000fe6200011760201b60201c565b6200011b565b6200011030826200016d565b5062000469565b3390565b600580546001600160a01b038381166001600160a01b0319831681179093556040519116919082907f8be0079c531659141344cd1fd0a4f28419497f9722a3daafe3b4186f6b6457e090600090a35050565b6001600160a01b0382166200019f5760405162461bcd60e51b815260040162000196906200036a565b60405180910390fd5b620001ad600083836200024f565b8060026000828254620001c1919062000395565b90915550506001600160a01b03821660009081526020819052604081208054839290620001f090849062000395565b90915550506040516001600160a01b038316906000907fddf252ad1be2c89b69c2b068fc378daa952ba7f163c4a11628f55a4df523b3ef90620002359085906200037c565b60405180910390a36200024b600083836200024f565b5050565b505050565b8280546200026290620003cd565b90600052602060002090601f016020900481019282620002865760008555620002d1565b82601f10620002a157805160ff1916838001178555620002d1565b82800160010185558215620002d1579182015b82811115620002d1578251825591602001919060010190620002b4565b50620002df929150620002e3565b5090565b5b80821115620002df5760008155600101620002e4565b805162000307816200044f565b92915050565b6000602082840312156200032057600080fd5b60006200032e8484620002fa565b949350505050565b600062000345601f836200038c565b915062000352826200042a565b5060200190565b6200036481620003ca565b82525050565b60208082528101620003078162000336565b6020810162000307828462000359565b90815260200190565b6000620003a282620003ca565b9150620003af83620003ca565b92508219821115620003c557620003c5620003fe565b500190565b90565b600281046001821680620003e257607f821691505b60208210811415620003f857620003f862000414565b50919050565b634e487b7160e01b600052601160045260246000fd5b634e487b7160e01b600052602260045260246000fd5b7f45524332303a206d696e7420746f20746865207a65726f2061646472657373009052565b6200045a81620003ca565b81146200046657600080fd5b50565b611a8280620004796000396000f3fe608060405234801561001057600080fd5b50600436106101375760003560e01c80638da5cb5b116100b8578063a457c2d71161007c578063a457c2d71461024d578063a9059cbb14610260578063bd29d9eb14610273578063d96a094a14610286578063dd62ed3e14610299578063f2fde38b146102ac57610137565b80638da5cb5b1461020d57806391c794b61461022257806395d89b411461022a578063960327021461023257806398166bb21461024557610137565b806339509351116100ff57806339509351146101b757806340c10f19146101ca57806370a08231146101df578063715018a6146101f25780638551cd82146101fa57610137565b806306fdde031461013c578063095ea7b31461015a57806318160ddd1461017a57806323b872dd1461018f578063313ce567146101a2575b600080fd5b6101446102bf565b6040516101519190611305565b60405180910390f35b61016d610168366004610fea565b610351565b60405161015191906112f7565b610182610375565b6040516101519190611416565b61016d61019d366004610f9d565b61037b565b6101aa6103ab565b6040516101519190611424565b61016d6101c5366004610fea565b6103b0565b6101dd6101d8366004610fea565b6103dc565b005b6101826101ed366004610f45565b610432565b6101dd61044d565b6101dd610208366004610f45565b610498565b6102156104f9565b60405161015191906112a6565b610215610508565b610144610517565b6101dd610240366004611038565b610526565b6102156106a4565b61016d61025b366004610fea565b6106b3565b61016d61026e366004610fea565b610706565b6101dd610281366004610f45565b61071e565b6101dd610294366004611038565b61077f565b6101826102a7366004610f63565b61093c565b6101dd6102ba366004610f45565b610967565b6060600380546102ce9061164f565b80601f01602080910402602001604051908101604052809291908181526020018280546102fa9061164f565b80156103475780601f1061031c57610100808354040283529160200191610347565b820191906000526020600020905b81548152906001019060200180831161032a57829003601f168201915b5050505050905090565b60008061035c6109d8565b90506103698185856109dc565b60019150505b92915050565b60025490565b6000806103866109d8565b9050610393858285610a90565b61039e858585610ada565b60019150505b9392505050565b601290565b6000806103bb6109d8565b90506103698185856103cd858961093c565b6103d79190611444565b6109dc565b6103e46109d8565b6001600160a01b03166103f56104f9565b6001600160a01b0316146104245760405162461bcd60e51b815260040161041b90611396565b60405180910390fd5b61042e8282610bfe565b5050565b6001600160a01b031660009081526020819052604090205490565b6104556109d8565b6001600160a01b03166104666104f9565b6001600160a01b03161461048c5760405162461bcd60e51b815260040161041b90611396565b6104966000610cc6565b565b6104a06109d8565b6001600160a01b03166104b16104f9565b6001600160a01b0316146104d75760405162461bcd60e51b815260040161041b90611396565b600680546001600160a01b0319166001600160a01b0392909216919091179055565b6005546001600160a01b031690565b6007546001600160a01b031690565b6060600480546102ce9061164f565b6000600854600a61053791906114e3565b600a8054610544916114e3565b61054f84600a6115c9565b61055991906115c9565b6105639190611472565b905061057082600a6115c9565b6006546040516370a0823160e01b81526001600160a01b03909116906370a08231906105a09030906004016112a6565b60206040518083038186803b1580156105b857600080fd5b505afa1580156105cc573d6000803e3d6000fd5b505050506040513d601f19601f820116820180604052508101906105f09190611056565b101561060e5760405162461bcd60e51b815260040161041b90611376565b61061a3360008461037b565b5060065460405163a9059cbb60e01b81526001600160a01b039091169063a9059cbb9061064d90339085906004016112dc565b602060405180830381600087803b15801561066757600080fd5b505af115801561067b573d6000803e3d6000fd5b505050506040513d601f19601f8201168201806040525081019061069f919061101a565b505050565b6006546001600160a01b031690565b6000806106be6109d8565b905060006106cc828661093c565b9050838110156106ee5760405162461bcd60e51b815260040161041b906113f6565b6106fb82868684036109dc565b506001949350505050565b6000806107116109d8565b9050610369818585610ada565b6107266109d8565b6001600160a01b03166107376104f9565b6001600160a01b03161461075d5760405162461bcd60e51b815260040161041b90611396565b600780546001600160a01b0319166001600160a01b0392909216919091179055565b6000600854600a61079091906114e3565b600a805461079d916114e3565b6107a884600a6115c9565b6107b291906115c9565b6107bc9190611472565b905060006107cc836103e86115c9565b9050826107d830610432565b10156107f65760405162461bcd60e51b815260040161041b906113d6565b60065461080e906001600160a01b0316333085610d18565b6007546040516370a0823160e01b815282916001600160a01b0316906370a082319061083e9030906004016112a6565b60206040518083038186803b15801561085657600080fd5b505afa15801561086a573d6000803e3d6000fd5b505050506040513d601f19601f8201168201806040525081019061088e9190611056565b10156108ac5760405162461bcd60e51b815260040161041b90611346565b60075460405163a9059cbb60e01b81526001600160a01b039091169063a9059cbb906108de90339085906004016112dc565b602060405180830381600087803b1580156108f857600080fd5b505af115801561090c573d6000803e3d6000fd5b505050506040513d601f19601f82011682018060405250810190610930919061101a565b5061069f303385610ada565b6001600160a01b03918216600090815260016020908152604080832093909416825291909152205490565b61096f6109d8565b6001600160a01b03166109806104f9565b6001600160a01b0316146109a65760405162461bcd60e51b815260040161041b90611396565b6001600160a01b0381166109cc5760405162461bcd60e51b815260040161041b90611326565b6109d581610cc6565b50565b3390565b6001600160a01b038316610a025760405162461bcd60e51b815260040161041b906113b6565b6001600160a01b038216610a285760405162461bcd60e51b815260040161041b90611336565b6001600160a01b0380841660008181526001602090815260408083209487168084529490915290819020849055517f8c5be1e5ebec7d5bd14f71427d1e84f3dd0314c0f7b2291e5b200ac8c7c3b92590610a83908590611416565b60405180910390a3505050565b6000610a9c848461093c565b90506000198114610ad45781811015610ac75760405162461bcd60e51b815260040161041b90611356565b610ad484848484036109dc565b50505050565b6001600160a01b038316610b005760405162461bcd60e51b815260040161041b906113a6565b6001600160a01b038216610b265760405162461bcd60e51b815260040161041b90611316565b610b3183838361069f565b6001600160a01b03831660009081526020819052604090205481811015610b6a5760405162461bcd60e51b815260040161041b90611366565b6001600160a01b03808516600090815260208190526040808220858503905591851681529081208054849290610ba1908490611444565b92505081905550826001600160a01b0316846001600160a01b03167fddf252ad1be2c89b69c2b068fc378daa952ba7f163c4a11628f55a4df523b3ef84604051610beb9190611416565b60405180910390a3610ad484848461069f565b6001600160a01b038216610c245760405162461bcd60e51b815260040161041b90611406565b610c306000838361069f565b8060026000828254610c429190611444565b90915550506001600160a01b03821660009081526020819052604081208054839290610c6f908490611444565b90915550506040516001600160a01b038316906000907fddf252ad1be2c89b69c2b068fc378daa952ba7f163c4a11628f55a4df523b3ef90610cb2908590611416565b60405180910390a361042e6000838361069f565b600580546001600160a01b038381166001600160a01b0319831681179093556040519116919082907f8be0079c531659141344cd1fd0a4f28419497f9722a3daafe3b4186f6b6457e090600090a35050565b610ad4846323b872dd60e01b858585604051602401610d39939291906112b4565b60408051601f198184030181529190526020810180516001600160e01b03166001600160e01b0319909316929092179091526000610dc0826040518060400160405280602081526020017f5361666545524332303a206c6f772d6c6576656c2063616c6c206661696c6564815250856001600160a01b0316610dfa9092919063ffffffff16565b80519091501561069f5780806020019051810190610dde919061101a565b61069f5760405162461bcd60e51b815260040161041b906113e6565b6060610e098484600085610e11565b949350505050565b606082471015610e335760405162461bcd60e51b815260040161041b90611386565b610e3c85610ed1565b610e585760405162461bcd60e51b815260040161041b906113c6565b600080866001600160a01b03168587604051610e74919061129a565b60006040518083038185875af1925050503d8060008114610eb1576040519150601f19603f3d011682016040523d82523d6000602084013e610eb6565b606091505b5091509150610ec6828286610ee0565b979650505050505050565b6001600160a01b03163b151590565b60608315610eef5750816103a4565b825115610eff5782518084602001fd5b8160405162461bcd60e51b815260040161041b9190611305565b803561036f81611a26565b805161036f81611a3a565b803561036f81611a43565b805161036f81611a43565b600060208284031215610f5757600080fd5b6000610e098484610f19565b60008060408385031215610f7657600080fd5b6000610f828585610f19565b9250506020610f9385828601610f19565b9150509250929050565b600080600060608486031215610fb257600080fd5b6000610fbe8686610f19565b9350506020610fcf86828701610f19565b9250506040610fe086828701610f2f565b9150509250925092565b60008060408385031215610ffd57600080fd5b60006110098585610f19565b9250506020610f9385828601610f2f565b60006020828403121561102c57600080fd5b6000610e098484610f24565b60006020828403121561104a57600080fd5b6000610e098484610f2f565b60006020828403121561106857600080fd5b6000610e098484610f3a565b61107d816115fe565b82525050565b61107d81611609565b600061109782611432565b6110a18185611436565b93506110b1818560208601611623565b9290920192915050565b60006110c682611432565b6110d0818561143b565b93506110e0818560208601611623565b6110e9816116be565b9093019392505050565b600061110060238361143b565b915061110b826116ce565b5060400190565b600061111f60268361143b565b915061110b82611700565b600061113760228361143b565b915061110b82611735565b600061114f60418361143b565b915061115a82611766565b5060600190565b600061116e601d8361143b565b9150611179826117bc565b5060200190565b600061118d60268361143b565b915061110b826117e1565b60006111a560408361143b565b915061110b82611816565b60006111bd60268361143b565b915061110b82611862565b60006111d560208361143b565b915061117982611897565b60006111ed60258361143b565b915061110b826118bc565b600061120560248361143b565b915061110b826118f0565b600061121d601d8361143b565b915061117982611923565b6000611235603d8361143b565b915061110b82611948565b600061124d602a8361143b565b915061110b82611994565b600061126560258361143b565b915061110b826119cd565b600061127d601f8361143b565b915061117982611a01565b61107d8161161a565b61107d8161161d565b60006103a4828461108c565b6020810161036f8284611074565b606081016112c28286611074565b6112cf6020830185611074565b610e096040830184611288565b604081016112ea8285611074565b6103a46020830184611288565b6020810161036f8284611083565b602080825281016103a481846110bb565b6020808252810161036f816110f3565b6020808252810161036f81611112565b6020808252810161036f8161112a565b6020808252810161036f81611142565b6020808252810161036f81611161565b6020808252810161036f81611180565b6020808252810161036f81611198565b6020808252810161036f816111b0565b6020808252810161036f816111c8565b6020808252810161036f816111e0565b6020808252810161036f816111f8565b6020808252810161036f81611210565b6020808252810161036f81611228565b6020808252810161036f81611240565b6020808252810161036f81611258565b6020808252810161036f81611270565b6020810161036f8284611288565b6020810161036f8284611291565b5190565b919050565b90815260200190565b600061144f8261161a565b915061145a8361161a565b9250821982111561146d5761146d61167c565b500190565b600061147d8261161a565b91506114888361161a565b92508261149757611497611692565b500490565b80825b60018511156114da578086048111156114ba576114ba61167c565b60018516156114c857908102905b80026114d3856116c8565b945061149f565b94509492505050565b60006114ee8261161a565b91506114f98361161a565b92506103a46000198484600082611512575060016103a4565b8161151f575060006103a4565b8160018114611535576002811461153f5761156c565b60019150506103a4565b60ff8411156115505761155061167c565b8360020a9150848211156115665761156661167c565b506103a4565b5060208310610133831016604e8410600b841016171561159f575081810a8381111561159a5761159a61167c565b6103a4565b6115ac848484600161149c565b925090508184048111156115c2576115c261167c565b0292915050565b60006115d48261161a565b91506115df8361161a565b92508160001904831182151516156115f9576115f961167c565b500290565b600061036f8261160e565b151590565b6001600160a01b031690565b90565b60ff1690565b60005b8381101561163e578181015183820152602001611626565b83811115610ad45750506000910152565b60028104600182168061166357607f821691505b60208210811415611676576116766116a8565b50919050565b634e487b7160e01b600052601160045260246000fd5b634e487b7160e01b600052601260045260246000fd5b634e487b7160e01b600052602260045260246000fd5b601f01601f191690565b60011c90565b7f45524332303a207472616e7366657220746f20746865207a65726f206164647281526265737360e81b602090910152565b7f4f776e61626c653a206e6577206f776e657220697320746865207a65726f206181526564647265737360d01b602090910152565b7f45524332303a20617070726f766520746f20746865207a65726f206164647265815261737360f01b602090910152565b7f636f6e747261637427732073585420746f6b656e20616d6f756e742073686f7581527f6c642062652067726561746572207468616e207265717565737420616d6f756e6020820152601d60fa1b604090910152565b7f45524332303a20696e73756666696369656e7420616c6c6f77616e63650000009052565b7f45524332303a207472616e7366657220616d6f756e7420657863656564732062815265616c616e636560d01b602090910152565b7f636f6e7472616374277320585420746f6b656e20616d6f756e742073686f756c81527f642062652067726561746572207468616e207265717565737420616d6f756e74602090910152565b7f416464726573733a20696e73756666696369656e742062616c616e636520666f8152651c8818d85b1b60d21b602090910152565b7f4f776e61626c653a2063616c6c6572206973206e6f7420746865206f776e65729052565b7f45524332303a207472616e736665722066726f6d20746865207a65726f206164815264647265737360d81b602090910152565b7f45524332303a20617070726f76652066726f6d20746865207a65726f206164648152637265737360e01b602090910152565b7f416464726573733a2063616c6c20746f206e6f6e2d636f6e74726163740000009052565b7f636f6e7472616374277320746f6b656e20616d6f756e742073686f756c64206281527f652067726561746572207468616e207265717565737420616d6f756e74000000602090910152565b7f5361666545524332303a204552433230206f7065726174696f6e20646964206e8152691bdd081cdd58d8d9595960b21b602090910152565b7f45524332303a2064656372656173656420616c6c6f77616e63652062656c6f77815264207a65726f60d81b602090910152565b7f45524332303a206d696e7420746f20746865207a65726f2061646472657373009052565b611a2f816115fe565b81146109d557600080fd5b611a2f81611609565b611a2f8161161a56fea26469706673582212208ed9ebfda55bb2a40a14895478dd9c1a6679fcdd6b41da59e5f9e01b094b530364736f6c63430008010033",
  "linkReferences": {},
  "deployedLinkReferences": {}
}